{
  "contractName": "PublicRegister",
  "abi": [
    {
      "constant": false,
      "inputs": [
        {
          "name": "key",
          "type": "uint8"
        },
        {
          "name": "hash",
          "type": "bytes32"
        }
      ],
      "name": "add",
      "outputs": [
        {
          "name": "",
          "type": "bool"
        }
      ],
      "payable": false,
      "stateMutability": "nonpayable",
      "type": "function"
    },
    {
      "constant": true,
      "inputs": [],
      "name": "test_hash2",
      "outputs": [
        {
          "name": "",
          "type": "bytes32"
        }
      ],
      "payable": false,
      "stateMutability": "view",
      "type": "function"
    },
    {
      "constant": true,
      "inputs": [],
      "name": "test_hash",
      "outputs": [
        {
          "name": "",
          "type": "bytes32"
        }
      ],
      "payable": false,
      "stateMutability": "view",
      "type": "function"
    }
  ],
  "bytecode": "0x6060604052341561000f57600080fd5b6102e18061001e6000396000f300606060405260043610610057576000357c0100000000000000000000000000000000000000000000000000000000900463ffffffff16806355fc3cfe1461005c578063e249e040146100a7578063fd5fc086146100d8575b600080fd5b341561006757600080fd5b61008d600480803560ff1690602001909190803560001916906020019091905050610109565b604051808215151515815260200191505060405180910390f35b34156100b257600080fd5b6100ba6102a9565b60405180826000191660001916815260200191505060405180910390f35b34156100e357600080fd5b6100eb6102af565b60405180826000191660001916815260200191505060405180910390f35b6000816001816000191690555060008060008560ff1681526020019081526020016000206000015460001916141561020f57816000808560ff1681526020019081526020016000206000018160001916905550336000808560ff16815260200190815260200160002060020160006101000a81548173ffffffffffffffffffffffffffffffffffffffff021916908373ffffffffffffffffffffffffffffffffffffffff160217905550336000808560ff16815260200190815260200160002060010160006101000a81548173ffffffffffffffffffffffffffffffffffffffff021916908373ffffffffffffffffffffffffffffffffffffffff1602179055506102a3565b3373ffffffffffffffffffffffffffffffffffffffff166000808560ff16815260200190815260200160002060020160009054906101000a900473ffffffffffffffffffffffffffffffffffffffff1673ffffffffffffffffffffffffffffffffffffffff1614151561028157600080fd5b816000808560ff16815260200190815260200160002060000181600019169055505b92915050565b60025481565b600154815600a165627a7a72305820e01aa9ed829dcbe4deff31f315f12f622d541483a34236459b77c5f249ff162b0029",
  "source": "pragma solidity ^0.4.4;\ncontract PublicRegister {\n\n    struct Entry {\n\t\tbytes32 hash;\n        address issuer;\n\t\taddress owner;\n    }\n\n    mapping(uint => Entry) entries;\n\tbytes32 public test_hash;\n\tbytes32 public test_hash2;\n\t\n\n    function add(uint8 key, bytes32 hash) public returns (bool) {\n\t\ttest_hash = hash;\n\t\tif (entries[key].hash == '') {\n\t\t\tentries[key].hash = hash;\n\t\t\tentries[key].owner = msg.sender;\n\t\t\tentries[key].issuer = msg.sender;\n\t\t}\n\t\telse {\n\t\t\trequire (entries[key].owner == msg.sender);\n\t\t\tentries[key].hash = hash;\n\t\t}\n    }\n}\n",
  "sourcePath": "/var/www/sunfinite.tech/publicregister/contracts/contracts/PublicRegister.sol",
  "compiler": {
    "name": "solc",
    "version": "0.4.18+commit.9cf6e910.Emscripten.clang"
  },
  "schemaVersion": "1.0.1",
  "updatedAt": "2017-11-13T11:43:37.735Z"
}